:02000000D52BFE
:10000800FF00030E8301AD000A08AE008A017008E4
:10001800A4007108A3007208A2007308A1000B1DB8
:100028002F280B11063081002708F0002808F1005E
:100038002908F2002A08F300F00A0319F10A031943
:10004800F20A0319F30A7008A7007108A8007208D9
:10005800A9007308AA002408F0002308F100220868
:10006800F2002108F3002E088A002D0E8300FF0EEF
:040078007F0E0900EE
:10007C00710DF80DF90D7408F8027508031C750F55
:10008C00F902F00DF10D0F30FC00710DF80DF90DAA
:10009C007408701C5728F8027508031C750FF902B8
:1000AC005C28F80775080318750FF907F00DF10DAA
:1000BC00FC0B4B28701868287408F807750803188F
:0800CC00750FF90700000800A0
:1000D4008030831203133006F00080307002031D59
:1000E400752800302F02031880282F08003CF000E8
:1000F4003008031C013EF101F10284282F08F000AE
:060104003008F1000800C4
:10010A00831203137408003A031D94287508003AF1
:10011A00031D9428FF30F0007F30F100ED28831290
:10012A000313FD01F901F801710870040319003481
:10013A0071087506FA00FA1BFD09FB01F51FAA28CA
:10014A00F409F509F40A0319F50AF11FB128F009AF
:10015A00F109F00A0319F10A71087504FA00FA1B89
:10016A00C6283E207B18D928FD1F0034F009F10962
:10017A00F00A0319F10AF809F909F80A0319F90A40
:10018A000034F51FD528F11BD1287108F900700831
:10019A00F800F101F001B928F101F001F00A003488
:1001AA00F109F009FB0AB628F80A0319F90A7408D2
:1001BA007802031DB92875087902031DB928F901C7
:1001CA00F801F00A0319F10AF11FB9280000FF34F7
:0201DA0008001B
:0E01DC00831203132C088A002B0882000800EF
:1001EA0083120313FB01FA01F901F801A001730D4F
:1001FA00F80D7408F8027508031C750FF9027608E1
:10020A00031C760FFA027708031C770FFB02000122
:10021A00031C0130A002F30D0730FC00730DF80D2A
:10022A00F90DFA0DFB0DA00D7408731C2E29F802A6
:10023A007508031C750FF9027608031C760FFA027B
:10024A007708031C770FFB020001031C0130A00290
:10025A003F29F80775080318750FF9077608031878
:10026A00760FFA0777080318770FFB0700010318C0
:10027A000130A007F30DFC0B1329720DF80DF90DCF
:10028A00FA0DFB0DA00D7408731C5D29F8027508A0
:10029A00031C750FF9027608031C760FFA02770819
:1002AA00031C770FFB020001031C0130A0026E2918
:1002BA00F80775080318750FF90776080318760FFB
:1002CA00FA0777080318770FFB07000103180130B4
:1002DA00A007F20D0730FC00720DF80DF90DFA0DAA
:1002EA00FB0DA00D7408721C8C29F8027508031CFA
:1002FA00750FF9027608031C760FFA027708031CB9
:10030A00770FFB020001031C0130A0029D29F807A8
:10031A0075080318750FF90776080318760FFA0798
:10032A0077080318770FFB07000103180130A007AD
:10033A00F20DFC0B7129710DF80DF90DFA0DFB0D7B
:10034A00A00D7408721CBB29F8027508031C750FEE
:10035A00F9027608031C760FFA027708031C770F56
:10036A00FB020001031C0130A002CC29F807750822
:10037A000318750FF90776080318760FFA07770836
:10038A000318770FFB07000103180130A007F10DCE
:10039A000730FC00710DF80DF90DFA0DFB0DA00DDB
:1003AA007408711CEA29F8027508031C750FF90212
:1003BA007608031C760FFA027708031C770FFB02F4
:1003CA000001031C0130A002FB29F8077508031875
:1003DA00750FF90776080318760FFA0777080318D6
:1003EA00770FFB07000103180130A007F10DFC0B82
:1003FA00CF29700DF80DF90DFA0DFB0DA00D74083B
:10040A00711C192AF8027508031C750FF90276087F
:10041A00031C760FFA027708031C770FFB02000110
:10042A00031C0130A0022A2AF80775080318750F61
:10043A00F90776080318760FFA0777080318770F73
:10044A00FB07000103180130A007F00D0730FC007C
:10045A00700DF80DF90DFA0DFB0DA00D7408701C46
:10046A00482AF8027508031C750FF9027608031C5E
:10047A00760FFA027708031C770FFB020001031CB0
:10048A000130A002592AF80775080318750FF907F1
:10049A0076080318760FFA0777080318770FFB0711
:1004AA00000103180130A007F00DFC0B2D2A70186B
:1004BA006C2A7408F80775080318750FF907760887
:1004CA000318760FFA0777080318770FFB07080057
:1004DA008030831203132606F00080307002031D59
:1004EA00782A063025020318BD2A07140711871037
:1004FA000A30F4000030F5002508F0002608F10063
:10050A0085207808F0007908F1007008F200710877
:10051A00F300F20DF30D721072081A3EF000043067
:10052A000318013E7307F1007008AB007108AC00B4
:10053A00EE208A110A12F300AB0A0319AC0AEE2064
:10054A008A110A12F4007308F0007408F100F00D21
:10055A00F10D70100430F00704300318013EF10762
:10056A007008AB007108AC00EE208A110A128600EE
:10057A0080302606F00080307002031DC62A06303D
:10058A002502031C162B80302606F00080307002EC
:10059A00031DD12A093025020318162B0714071147
:1005AA0087100A30F4000030F5002508F00026080C
:1005BA00F10085207808F0007908F1007008F2004F
:1005CA007108F300F20DF30D721072081A3EF00072
:1005DA0004300318013E7307F1007008AB0071087C
:1005EA00AC00EE208A110A12F300AB0A0319AC0A16
:1005FA00EE208A110A12F4007308F0007408F10060
:10060A00F00DF10D70100430F00704300318013EAC
:10061A00F1077008AB007108AC00EE208A110A12CB
:10062A00860080302606F00080307002031D1F2BE2
:10063A0009302502031C762B80302606F000803014
:10064A007002031D2A2B0F3025020318762B071080
:10065A000711871406302502F0000030031C013E02
:10066A002602F1000A30F4000030F50085207808EF
:10067A00F0007908F1007008F2007108F300F20D39
:10068A00F30D721072081A3EF00004300318013E8E
:10069A007307F1007008AB007108AC00EE208A11F4
:1006AA000A12AF00AB0A0319AC0AEE208A110A1229
:1006BA00B0006A207008F2007108F300F20DF30D21
:1006CA0072107208043EF00004300318013E7307EA
:1006DA00F1007008AB007108AC00EE208A110A1212
:1006EA00860080302606F00080307002031D7F2BC2
:1006FA000F302502031CC82B071007158710250881
:10070A00013EF00000300318013E2607F1000A30CE
:10071A00F4000030F50085207808F0007908F1002F
:10072A007008F2007108F300F20DF30D72107208EE
:10073A001A3EF00004300318013E7307F1007008F6
:10074A00AB007108AC00EE208A110A12F300AB0A62
:10075A000319AC0AEE208A110A12F4007308F00099
:10076A007408F100F00DF10D70100430F007043038
:10077A000318013EF1077008AB007108AC00EE20C7
:08078A008A110A128600080022
:10079200EE208A110A128000840AAB0A0319AC0AFD
:0807A200F003031DC92B080040
:1007AA0083120313A501A601A701A801A901AA01A1
:1007BA00823083168100063083128100A0308B00BC
:1007CA00831686013F3083128600831687018312BF
:1007DA008701E830F4000330F500F601F701270835
:1007EA00F0002808F1002908F2002A08F300F52091
:0E07FA007008A5007108A6006D22EE2B032CDE
:100808003F340034063400345B3400344F34003451
:10081800663400346D3400347D34003407340034D9
:0C0828007F3400346F3400343F3400345F
:1008340009340034083400340734003406340034F6
:1008440005340034043400340334003402340034F6
:080854000134003400340034CB
:02400E004A2F37
:00000001FF
